:020000040000fa
:04005c009a04000002
:020000040000fa
:040010009a0400004e
:020000040000fa
:04025c009a04000000
:020000040000fa
:040210009a0400004c
:020000040000fa
:040274009a040000e8
:020000040000fa
:040334009a04000027
:020000040000fa
:040270009a040000ec
:020000040000fa
:04022c009a04000030
:020000040000fa
:04023c009a04000020
:020000040000fa
:0402bc009a040000a0
:020000040000fa
:0402c0009a0400009c
:020000040000fa
:0402c4009a04000098
:020000040000fa
:040228009a04000034
:020000040000fa
:040278009a040000e4
:020000040000fa
:04029c009a040000c0
:020000040000fa
:040260009a040000fc
:020000040000fa
:040264009a040000f8
:020000040000fa
:04027c009a040000e0
:020000040000fa
:040280009a040000dc
:020000040000fa
:040284009a040000d8
:020000040000fa
:040288009a040000d4
:020000040000fa
:0402b0009a040000ac
:020000040000fa
:0402b4009a040000a8
:020000040000fa
:0402b8009a040000a4
:020000040000fa
:040238009a04000024
:020000040000fa
:0402c8009a04000094
:020000040000fa
:0402d0009a0400008c
:020000040000fa
:0402d4009a04000088
:020000040000fa
:0402d8009a04000084
:020000040000fa
:0402e0009a0400007c
:020000040000fa
:0402e4009a04000078
:020000040000fa
:0402e8009a04000074
:020000040000fa
:0402f4009a04000068
:020000040000fa
:0402f8009a04000064
:020000040000fa
:0402fc009a04000060
:020000040000fa
:040300009a0400005b
:020000040000fa
:040304009a04000057
:020000040000fa
:040308009a04000053
:020000040000fa
:04030c009a0400004f
:020000040000fa
:040310009a0400004b
:020000040000fa
:040314009a04000047
:020000040000fa
:040318009a04000043
:020000040000fa
:04031c009a0400003f
:020000040000fa
:040324009a04000037
:020000040000fa
:040328009a04000033
:020000040000fa
:040338009a04000023
:020000040000fa
:04033c009a0400001f
:020000040000fa
:040340009a0400001b
:020000040000fa
:040344009a04000017
:020000040000fa
:040348009a04000013
:020000040000fa
:04026c009a040000f0
:020000040000fa
:0402f0009a0400006c
:020000040000fa
:040218009a04000044
:020000040000fa
:040230009a0400002c
:020000040000fa
:040240009a0400001c
:020000040000fa
:04028c009a040000d0
:020000040000fa
:040290009a040000cc
:020000040000fa
:0402cc009a04000090
:020000040000fa
:04020c009a04000050
:020000040000fa
:0402dc009a04000080
:020000040000fa
:040320009a0400003b
:020000040000fa
:040208009a04000054
:020000040000fa
:04021c009a04000040
:020000040000fa
:040220009a0400003c
:020000040000fa
:040224009a04000038
:020000040000fa
:040268009a040000f4
:020000040000fa
:0402ec009a04000070
:020000040000fa
:04024c009a04000010
:020000040000fa
:040250009a0400000c
:020000040000fa
:0402a8009a040000b4
:020000040000fa
:0402ac009a040000b0
:020000040000fa
:040214009a04000048
:020000040000fa
:040234009a04000028
:020000040000fa
:040244009a04000018
:020000040000fa
:040248009a04000014
:020000040000fa
:040294009a040000c8
:020000040000fa
:040298009a040000c4
:020000040000fa
:04032c009a0400002f
:020000040000fa
:040254009a04000008
:020000040000fa
:040258009a04000004
:020000040000fa
:040330009a0400002b
:020000040000fa
:0402a0009a040000bc
:020000040000fa
:0402a4009a040000b8
:020000040000fa
:040074009a040000ea
:020000040000fa
:040134009a04000029
:020000040000fa
:040070009a040000ee
:020000040000fa
:04002c009a04000032
:020000040000fa
:04003c009a04000022
:020000040000fa
:0400bc009a040000a2
:020000040000fa
:0400c0009a0400009e
:020000040000fa
:0400c4009a0400009a
:020000040000fa
:040028009a04000036
:020000040000fa
:040078009a040000e6
:020000040000fa
:04009c009a040000c2
:020000040000fa
:040060009a040000fe
:020000040000fa
:040064009a040000fa
:020000040000fa
:04007c009a040000e2
:020000040000fa
:040080009a040000de
:020000040000fa
:040084009a040000da
:020000040000fa
:040088009a040000d6
:020000040000fa
:0400b0009a040000ae
:020000040000fa
:0400b4009a040000aa
:020000040000fa
:0400b8009a040000a6
:020000040000fa
:040038009a04000026
:020000040000fa
:0400c8009a04000096
:020000040000fa
:0400d0009a0400008e
:020000040000fa
:0400d4009a0400008a
:020000040000fa
:0400d8009a04000086
:020000040000fa
:0400e0009a0400007e
:020000040000fa
:0400e4009a0400007a
:020000040000fa
:0400e8009a04000076
:020000040000fa
:0400f4009a0400006a
:020000040000fa
:0400f8009a04000066
:020000040000fa
:0400fc009a04000062
:020000040000fa
:040100009a0400005d
:020000040000fa
:040104009a04000059
:020000040000fa
:040108009a04000055
:020000040000fa
:04010c009a04000051
:020000040000fa
:040110009a0400004d
:020000040000fa
:040114009a04000049
:020000040000fa
:040118009a04000045
:020000040000fa
:04011c009a04000041
:020000040000fa
:040124009a04000039
:020000040000fa
:040128009a04000035
:020000040000fa
:040138009a04000025
:020000040000fa
:04013c009a04000021
:020000040000fa
:040140009a0400001d
:020000040000fa
:040144009a04000019
:020000040000fa
:040148009a04000015
:020000040000fa
:04006c009a040000f2
:020000040000fa
:0400f0009a0400006e
:020000040000fa
:040018009a04000046
:020000040000fa
:040030009a0400002e
:020000040000fa
:040040009a0400001e
:020000040000fa
:04008c009a040000d2
:020000040000fa
:040090009a040000ce
:020000040000fa
:0400cc009a04000092
:020000040000fa
:04000c009a04000052
:020000040000fa
:0400dc009a04000082
:020000040000fa
:040120009a0400003d
:020000040000fa
:040008009a04000056
:020000040000fa
:04001c009a04000042
:020000040000fa
:040020009a0400003e
:020000040000fa
:040024009a0400003a
:020000040000fa
:040068009a040000f6
:020000040000fa
:0400ec009a04000072
:020000040000fa
:04004c009a04000012
:020000040000fa
:040050009a0400000e
:020000040000fa
:0400a8009a040000b6
:020000040000fa
:0400ac009a040000b2
:020000040000fa
:040014009a0400004a
:020000040000fa
:040044009a0400001a
:020000040000fa
:040048009a04000016
:020000040000fa
:040094009a040000ca
:020000040000fa
:040098009a040000c6
:020000040000fa
:04012c009a04000031
:020000040000fa
:040130009a0400002d
:020000040000fa
:080000000002040000000000f2
:020000040000fa
:100400002fc721000e7f22000e018800000000008f
:10041000000020000000e000020032000001200087
:10042000200288000e00070000f1250001002000d6
:10043000810f70000100320014000700000020004e
:100440000000e00002003200000002000000000096
:100450009e610200000000000040da000000fe0083
:100460004440a900a04b20000000e000030032003f
:1004700000002000a00188004440a8000000060001
:100480008a1f78008b1f7800000006009101880009
:10049000800478000000eb001a003700e28444007a
:1004a00032a0b4009905ba00e284440032a0b4003e
:1004b0009906ba00e284440032a0b4000006eb00c2
:1004c000476fde00fd07b200636ce10003003a00f5
:1004d000ebff07000000eb000a003700606ce10052
:1004e00004003a00005deb008b05e900fdff3e00d3
:1004f000040037006168e100010032000086eb0073
:100500000b00070019c7ba001905ba000e04e00075
:1005100003003a000a00e000e0ff3a000000060095
:10052000fe07b2009e0188008a047800f5ff3700bc
:10053000395dba008b05e9000c003200295dba0074
:100540008b05e900080032000c00e00003003a00cf
:10055000e284440032a0b400f5ff370019ddba0090
:100560008b05e900faff3a008904e800e1844400c1
:1005700032a0b400000006000000000000000000ef
:10058000000000000000000000000000000000006b
:10059000000000000000000000000000000000005b
:1005a00000000000000000003600f800809fbe0040
:1005b000829fbe00849fbe00869fbe000400fa009a
:1005c00010118000000f78009e00780061806000ac
:1005d000004078000004e00020003200301180006c
:1005e000204798002e409000ef4f50000800340044
:1005f0002e409000f94f500005003c002e40900026
:100600000000fb006f0060005041880013003700bd
:10061000004080002e419000c18820008270780048
:100620000000e800004088002e409000ea4f500093
:10063000030032002e409000ed4f500002003a00bf
:1006400030022000ab30070001408000f01f200086
:10065000808f5000010034000028ef008560a90061
:100660000080fa004f03be004f02be004f01be00e3
:100670004f00be003600f90000400600809fbe001b
:100680000000fa008580a9000c003700204080009f
:10069000c1a82000e14078008180fb002111880082
:1006a0000000e8002040880021408000f01f20006a
:1006b000808f5000010034000428ef0011118000e9
:1006c00000202000008060000000e00004003a00ec
:1006d0002140800030408000808f5000ebff3a00c6
:1006e0000080fa004f00be00004006003600f8000f
:1006f000809fbe00829fbe00849fbe00869fbe007a
:100700000400fa0090118000000f78009e0078002d
:1007100061806000004078000004e0003b0032008f
:10072000b0118000204798002e4090000081fb000f
:100730008001eb0080418000914180000000710049
:1007400081807100804188009141880021418000b2
:1007500010c0b300e28f5000010034000040eb00f5
:100760008100e800214188000004e0000900320017
:1007700082418000934180004818dd00c810de00ef
:10078000810070004810dd008041880091418800a0
:100790001e00370080418000914180006041880048
:1007a00071418800424180006041800071418000b9
:1007b000c211dd00c2682100028141000089be0033
:1007c000509b2100104078000004e000030032003c
:1007d000200220004730070002003700404180001f
:1007e000304188002428ef00404180000000e800ec
:1007f0004041880040418000f30f50000100340068
:100800002828ef003028ef003228ef0087c0a90029
:100810000080fa004f03be004f02be004f01be0031
:100820004f00be003600f90000400600809fbe0069
:100830000000fa0087e0a9000c003700604080004b
:10084000c1482100e14078008180fb00a1118800af
:100850000000e8006040880061408000f01f200038
:10086000808f5000010034000c28ef0091118000af
:1008700000202000008060000000e00004003a003a
:100880006140800070408000808f5000ebff3a0094
:100890000080fa004f00be00004006003600f8005d
:1008a000809fbe00829fbe00849fbe00869fbe00c8
:1008b0000000fa008460a900b0408000c1408000c0
:1008c00061004000e0804800b0408800c1408800de
:1008d000804080000000e800804088008040800068
:1008e0000000e0000c0034001028ef00000220009f
:1008f00000300700a04080000000e800a040880011
:10090000a0408000e10f50000300340010022000de
:10091000f82f07001428ef000080fa004f03be00f4
:100920004f02be004f01be004f00be003600f9006e
:10093000004006000040da000000fe0000047800dd
:10094000060037000180400022e38000620078004a
:100950008100e80031e388000000010031e38000fd
:1009600040e38000808f5000f6ff3900a0b02100e6
:1009700020e388002002200040e38800080078007f
:1009800097110700881f780002047800080178009a
:1009900032000700080040004f0478000000060005
:1009a0000000fa00881f780000047800ea815700f0
:1009b0003fb9970088007800204c20003d010700d7
:1009c0000000e000020035008040eb000174780078
:1009d0004f0478000080fa000000060080007800d4
:1009e0001106b100030035009101b10001003c0087
:1009f0000050a100000006001006b1000300350001
:100a00009001b10001003c0010000500000005004d
:100a1000800078001104b100030035009101b1009d
:100a200001003c000050a00000000600800078009b
:100a3000010178003104e000fdff3a0000005100a0
:100a40000000060000017800b141780003597800e9
:100a50000304e000fcff3a0000000600800178007b
:100a600002003700b15978000201e9000200e000fd
:100a7000fcff3a0000000600881f7800020478009e
:100a800008017800f5ff0700080040004f047800d7
:100a9000000006000000fa00881f780000047800bb
:100aa000ea8157003fb9970088007800c0532000c2
:100ab000b20107000000e000020035008040eb00ba
:100ac000017478004f0478000080fa0000000600ee
:100ad00000017800820178003204e000fdff3a0056
:100ae00003017800b1417800035978000304e00065
:100af000fcff3a0000000600ee874700889fbe001a
:100b00008a9fbe008c9fbe008e1f7800f0b79f00aa
:100b10000106780082057800000478000805780056
:100b20000a047800b84678000d00fb004502070073
:100b30000000e000f9ff3a00d0c2b30080cf5600b9
:100b40000300320000c0e90080cf560002003a00e6
:100b50000a05e80001003700804678000b00e0003d
:100b600005003500e18f55000300320040022000ef
:100b7000808f5500060034006044b8000c00e0008f
:100b8000700032007fb09700000e78006d003700d3
:100b90000b00e0000e003200f08f55001a003a0002
:100ba00000c3b3009a4f100017003a001a4090009b
:100bb00081c7b300814f50000300320081c5b300ec
:100bc000814f500010003a000a85e8000e003700ff
:100bd000ab00200000c3b3009a4f10000a003a0097
:100be0001a40900081c7b300814f500004003200ca
:100bf0008b00200081c5b300814f500002003a00f5
:100c00000a85e8000b0120000a0078000002780045
:100c10000400780001c3b300b0cf1000fbff320026
:100c2000040778006044b800b4b79f000d00370097
:100c300001ac210081405000c1ef9f006159b90013
:100c40000800be00421207004fea97000401fb00b3
:100c5000cf91de00c8b79f00d9b79f0002044000c3
:100c6000838448008e0278003e00fb0085bf9f0011
:100c700067ff07000b0178008000780000ac2100be
:100c8000f80107008fba97000000e000e8ff3a0083
:100c90003fb29700850f550005003a006044b80048
:100ca0000c00e00027003200ffb29700240037005c
:100cb0000482520050ae210060c07d000000fb00a5
:100cc000000252001700330011003a004fe997006c
:100cd0000200fb00cf80de000000540081805c0039
:100ce000800f5400818f5c00090039006159b90000
:100cf00085bf9f001c1207008fba97004fb1970065
:100d0000dfb19700820f5000838f5800050032003a
:100d10002002200050e388000084eb008084eb0078
:100d200005003700d0c2b30080cf560002003a0061
:100d300060041400e0841c000c00e000010032009c
:100d4000050e78000800be004f0778004f06be0071
:100d50004f05be004f04be00ef00b10000000600ca
:100d60000e00fa00889fbe008a9fbe008c1f78008c
:100d7000a0bf9f00010478000205be008004780037
:100d8000880078006c805700c60107006806600084
:100d9000000278000430a100e10f520013003a0075
:100da000f481570008017800afb897000900780077
:100db0004d0207000000e00002003a006000b800a9
:100dc000030037000fb897009fb897008c100700fa
:100dd000c0b79f00d1b79f006fb19700ffb19700d8
:100de0000a0141008b81490016003700e20f5200d2
:100df00018003a0014002000f48157000801780020
:100e0000afb89700090078001f0307000000e0005a
:100e100002003a006000b800030037000fb89700e6
:100e20009fb8970076100700c0b79f00d1b79f000a
:100e30006fb19700ffb19700788057000a04070050
:100e40000a01be004fb09700dfb09700750407009d
:100e50000c0037000000200001f82700e30f5200cb
:100e6000050032006000b800e40f520005003a00af
:100e7000f0ff2f00f1ff2700c0b79f00d1b79f0000
:100e800002003700c0b79f00d1b79f004fb0970056
:100e9000dfb097000c00e0000100320001f0a2007a
:100ea0004f0678004f05be004f04be000080fa00d8
:100eb000000006006200fa00889fbe008a1f7800ca
:100ec000000578008104780002047800830078002f
:100ed00080f92f000f004000bb0407009a979f0085
:100ee000a9979f000000eb00b09f9f001885fb00b2
:100ef0008a04fb000a05ea004f55de00500220007c
:100f0000808f54000d003200e10f55000b003a00b5
:100f10000a017800880078002f9097009f91970031
:100f200003000100a0979f000000e0008e00320047
:100f30003f9897000000e800b09f9f000a0444001b
:100f400050022000808f5400040032000900e000ad
:100f5000e6ff3a003f989700840037000000eb005e
:100f6000909f9f00809f9f00f0979f00e0979f00b9
:100f7000d0979f00c0979f0007003700c1c2210093
:100f8000010050000000400001c221006100780013
:100f9000df98970001007000d09f9f0088047800c0
:100fa00009047800384578008a00fb00c0c221009f
:100fb000870407000000e000f0ff3a00a1c2b30080
:100fc000814f55000e003a00cf8897000180e9005c
:100fd000c08f9f0010007800c09f9f000000e000bd
:100fe00005003d000000ea00c09f9f005f98970049
:100ff0000020a000d09f9f000904e8000f003700e8
:10100000c09f9f000000eb0005003700f2ff2700a3
:10101000820f5000020032006a01b90002804000d5
:101020000904780088047800b900fb000103b100ce
:10103000e98f5000f5ff3600c09f9f00e0c2b3006b
:10104000984f1000020032000080eb0019003700ba
:10105000a0c2b300d84f100007003a00cf88970015
:101060000180e900c08f9f0010007800a09f9f00c2
:101070000804e800100037000000eb00a09f9f006c
:101080008800780005003700f3ff2700830f500029
:10109000020032006a02b900040041000104780035
:1010a000880078003101fb000203b100e90f510014
:1010b000f5ff3600a09f9f00984478008900fb0050
:1010c00080c12100420407000000e000020032005d
:1010d0000804e800010037008044eb00c97f9f004e
:1010e00080c6b30080cf540004003a0098cf1400ab
:1010f0000a003a006640500006003700c0c6b30040
:1011000080cf540005003a0098cf140003003a0045
:1011100065404000c07f9f000804e8001801fb0004
:10112000e3fb2f008f81410081f92f008f80400069
:10113000a0f92f000f004000310407000000e0007c
:1011400009003a00e1fb2f008f804000a0f92f003a
:101150000f0040007d0507000000e00002003500a0
:101160000804e80061ff37000080eb004f057800bd
:101170004f04be000080fa00000006006200fa0082
:10118000889fbe008a1f78000005780081047800df
:10119000020478008300780080f92f000f004000df
:1011a000090407009a979f00a9979f000000eb0091
:1011b000b09f9f001885fb008a04fb000a05ea0027
:1011c0004f55de0050022000808f54000d00320089
:1011d000e10f55000b003a000a0178008800780002
:1011e0002f9097009f91970003000100a0979f0008
:1011f0000000e0008e0032003f9897000000e800f9
:10120000b09f9f000a04440050022000808f5400c9
:10121000040032000900e000e6ff3a003f98970022
:10122000840037000000eb00909f9f00809f9f008c
:10123000f0979f00e0979f00d0979f00c0979f0076
:101240000700370061c42100010050000000400089
:10125000a1c3210061007800df98970001007000b1
:10126000d09f9f00880478000904780038457800f2
:101270008a00fb0060c42100d50307000000e000e5
:10128000f0ff3a00a1c2b300814f55000e003a00b2
:10129000cf8897000180e900c08f9f001000780080
:1012a000c09f9f000000e00005003d000000ea0034
:1012b000c09f9f005f9897000020a000d09f9f00d4
:1012c0000904e8000f003700c09f9f000000eb00fa
:1012d00005003700f2ff2700820f500002003200a5
:1012e0006a01b9000280400009047800880478008f
:1012f000b900fb000103b100e98f5000f5ff360093
:10130000c09f9f00e0c2b300984f1000020032005f
:101310000080eb0019003700a0c2b300d84f1000c6
:1013200007003a00cf8897000180e900c08f9f0036
:1013300010007800a09f9f000804e800100037000c
:101340000000eb00a09f9f00880078000500370098
:10135000f3ff2700830f5000020032006a02b90039
:101360000400410001047800880078003101fb008e
:101370000203b100e90f5100f5ff3600a09f9f0066
:10138000984478008900fb0020c3210090030700e7
:101390000000e000020032000804e800010037000d
:1013a0008044eb00c97f9f0080c6b30080cf54000b
:1013b00004003a0098cf14000a003a00664050003a
:1013c00006003700c0c6b30080cf540005003a00c5
:1013d00098cf140003003a0065404000c07f9f0092
:1013e0000804e800e3fb2f008f81410018417800da
:1013f00081f92f008f804000a0f92f000f004000de
:101400008e0507000000e00009003a00e1fb2f0014
:101410008f804000a0f92f000f004000cb04070090
:101420000000e000020035000804e80061ff37001a
:101430000080eb004f0578004f04be000080fa00ea
:10144000000006006900e100040035006d00e100c5
:10145000030034000002b10001003200000005006a
:101460001000050003003700b0cf10000500320067
:101470000201e900800178000200e000faff3a0072
:1014800000000500030078000000060060e3800013
:101490000000e0000100320000000100a0c62100b1
:1014a00000000600889fbe008a9fbe008c9fbe0081
:1014b0000004780001067800980478008905780017
:1014c0000b0578008a057800bb4678000d00fb000c
:1014d000dcff07000000e000f9ff3a00d0c2b300d3
:1014e00080cf560003003a000b05780081002000f1
:1014f000050037008000eb00b0c2b30080cf56007b
:1015000001003a000b0578001a407800e2c6b300eb
:10151000824f500003003200e2c4b300824f5000fb
:1015200027003a008a0078005141780010c6b300c5
:10153000804f5100040032000000eb0013c4b300e0
:10154000834f51005c003a0051417800e0c6b3007f
:10155000804f5100040032000000eb00e3c4b300f0
:10156000834f510054003a008104780080c2b300d8
:10157000d94f10000b003a00640545008a05780039
:10158000ba4678000d00fb00990607000000e00055
:10159000faff3a00f0c5b30080cf5600f7ff3200e3
:1015a00001003700890578004000200091c2b30097
:1015b0009bcf100040003a008b04e8003e0037004b
:1015c00092c6b300824f50000300320092c4b300b1
:1015d000824f50003c003a005a417800e0c6b30008
:1015e000804f5100040032000000eb00e3c4b30060
:1015f000834f510030003a005a41780060c6b30072
:10160000804f5100040032000000eb0063c4b300bf
:10161000834f510028003a008a04780001007800c6
:101620003000b300d940780092c6b30082cf50009a
:101630000300320092c4b30082cf50001e003a0073
:101640008900780051417800e3c6b300834f510010
:1016500003003200e3c4b300834f510016003a0088
:101660005141780093c6b300834f5100030032000c
:1016700093c4b300834f51000f003a0051417800ea
:1016800043c7b300834f51000300320043c5b3008a
:10169000834f510008003a005141780093c7b300ce
:1016a000834f51000300320093c5b300834f5100b4
:1016b00001003a008104e8000c00e000050032005f
:1016c000090e780003003700010078000000a00038
:1016d0008a047800090c78004f06be004f05be0052
:1016e0004f04be0000000600ea874700889fbe0046
:1016f0008a9fbe008c9fbe008e1f7800d0b79f00cf
:10170000e2b79f00030478006922b90084067800dc
:101710000006eb00010037001c0020008105780066
:101720008b00780000c3b300b14f1000faff320005
:10173000000ceb0038147800080578008004eb00fa
:10174000290037008d8f540017003d0092002000c3
:10175000110009008204d8000100e00003003a00f3
:1017600064054500001deb000015eb001b02fb00ab
:10177000cfa2de000403b1000580b100a20020006a
:10178000030020001a00be00f4b79f0085bf9f0031
:101790006f0f07007fb297008fba9700001d4200bd
:1017a00001954a000d0037001000200001002000c4
:1017b000180c4000589448008d8f540008003a00df
:1017c00040c3b3009b4f10000500340012002000fe
:1017d000030020001a0d41005a9549008904e800d1
:1017e0008b05e8001c0020001b4078008000fb00f7
:1017f0000103b100e98f5000d2ff36008d8f5400f5
:10180000010034008d047800e1c2b300814f500024
:1018100001003a008b05e8000900e0002b003a00c7
:101820000b007800050037000081eb008081eb00a1
:10183000180c4100589449001c00200080057800d5
:1018400001c3b300b0cf1000f7ff32001f00370014
:101850008d8f54001c003d009200200011000900f3
:101860008204d8000100e00003003a00640545004e
:10187000001deb000015eb007bfa97000402fb0053
:10188000cfa2de000403b1000580b100a200200059
:10189000030020001a00be00f4b79f0085bf9f0020
:1018a0002b0f07007fb297008fba9700001d4200f0
:1018b00001954a008904e8000080eb008080eb007d
:1018c000180c4000589448001c0020000b077800ba
:1018d0008e0578003b00fb000003b100e90f5000cb
:1018e000dbff36008c0578009d0020001100090008
:1018f0008d04d8000100e0001600320081865600f9
:101900001a01be00e00f5100e08f590007003200bd
:101910000d00e9004200dd00e1bd21000080400033
:101920001000be000a0f0700008dbe00898446002b
:101930006168b900181c10001894180005003700e1
:10194000e98454009200200003002000180c41009c
:1019500058944900e88f5400040034002a00be0067
:10196000e00f5000e08f5800f5ff32000c00e0005f
:10197000340032001e40780051c6b300814f500041
:101980000300320051c4b300814f50002c003a00d4
:101990005e457800b0c2b300804f550003003200ae
:1019a000d1c2b300814f550002003a000e07e80093
:1019b00001003700004578000e0678006000b8008e
:1019c0008005eb000f003700f20f2e00535f200060
:1019d000820f5000838f580009003c00a2002000b5
:1019e00003002000da0e07000d01fb00cf91de009e
:1019f0000203b1000380b100020040008380480070
:101a00001b0020000c0778000e067800bc4678000a
:101a10000d01fb000203b100e90f5100eaff36009f
:101a2000d2c2b300824f550002003a00600010009d
:101a3000e0801800180c400058944800010037005e
:101a40008c057800efb197000300e000050032003c
:101a50000b00e00001003a005fb797006fb09700fd
:101a60000e08780092002000110009008204d800be
:101a70004f0778004f06be004f05be004f04be0062
:101a8000af00b10000000600e8874700889fbe0055
:101a90008a9fbe008c9fbe008e1f7800e0b79f001b
:101aa00082047800030478006722b9000006eb0086
:101ab000010037001c0020008101780000c3b30042
:101ac000b14f1000fbff3200000ceb00381478001f
:101ad000880578000005eb002a003700840f5500c8
:101ae00016003d0072002000110009000205d80018
:101af0000100e00003003a00e4854500801deb0092
:101b00008015eb001b06be00446bdd00cc63de00dd
:101b1000870373004463dd0041ba21000180520055
:101b2000e1b82100614078000000fb00cf80de00ba
:101b3000801d430081954b001000370010002000ed
:101b400001002000180c400058944800840f5500f4
:101b50000b003a0041ba210001805200e1b8210097
:101b600061407800e74f500005003400100020006d
:101b7000010020009b0d4000db9548000a05e800ad
:101b80001c002000830678008d0178003347780020
:101b90008e00fb006201200040ba2100f3b79f00d5
:101ba00084bf9f002ffe070080027800ffb19700de
:101bb0000fba97000500e000c8ff3a00840f5500f7
:101bc0000100340004057800e0c2b300804f5700e4
:101bd00001003a008d06e8000a00e00029003a0002
:101be0000d007800050037000081eb008081eb00dc
:101bf000180c4100589449001c0020008006780011
:101c000001c3b300b0cf1000f7ff32001d00370052
:101c1000840f55001a003d007200200011000900d9
:101c20000205d8000100e00003003a00e485450009
:101c3000801deb008015eb001b03be004439dd0066
:101c4000cc31de00830171004431dd0041ba210056
:101c500001805200e1b82100614078000000fb00e3
:101c6000cf80de00801d4100819549000a05e80013
:101c70000081eb008081eb00180c41005894490072
:101c80001c0020000d0778008e067800bd00fb00c8
:101c90006201200040ba210084bf9f00f1fd0700cf
:101ca000800278000fba97000500e000d8ff3a00e4
:101cb0000c01780073002000110009000305d80012
:101cc0000100e0001300320001805100c200dd007d
:101cd0001b02be008100e900030033000402420041
:101ce00085824a00fbff3700848dbe000a05400054
:101cf000cf80de00181c1000189418000500370073
:101d0000670555007000200001002000180c4000fd
:101d100058944800e60f5500040034002b00be0024
:101d2000e00f5000e08f5800f5ff32001800be00b1
:101d3000420add00ce02de00850272004202dd00b2
:101d4000048cbe000c00e000380032001e40780019
:101d500001c7b300814f50000300320001c5b3003a
:101d6000814f500030003a000e067800dc457800c4
:101d7000b0c2b30080cf550003003200d1c2b3001f
:101d800081cf550002003a000c06e8000100370040
:101d9000804578006000b8000001eb0013003700b8
:101da000f20f2e00535f2000820f5000838f5800e7
:101db0000d003c00a20020000300200084bf9f0013
:101dc000f5b79f00e20d07000d01fb00cf91de008b
:101dd0000203b1000380b10002004000838048008c
:101de000ffb297000fba9700120020000c0778008e
:101df0000e067800bc4678008d01fb000303b1009d
:101e0000e98f5100e6ff3600d3c2b30083cf5500ff
:101e100002003a0060001000e0801800041c40003e
:101e200005944800010037000c0178000900e0002b
:101e3000040032000200e00001003a006fb7970092
:101e40008e0c780072002000110009000205d800f5
:101e50004f0778004f06be004f05be004f04be007e
:101e60008f00b100000006000400fa00889fbe0049
:101e70000004780088047800590078004702de00ea
:101e800084007800f10fb200e14f420009003a00ef
:101e900080007800f107b200200020004a003a00dc
:101ea000100020001800e000470032002000200051
:101eb000450037000100e0000a003a000800780001
:101ec000c2bf9f00d3bf9f00570407008000780067
:101ed0000000eb004fb99700dfb997000100e00068
:101ee00039003c004f88de00028140008301480039
:101ef000e00f2000800f5100e08f590009003400ee
:101f00000000200001f827001900e00002003d0059
:101f10000000200001f82f00008cbe0010002000ff
:101f200029003700e00f5100e08f59000500340010
:101f30004711dd00f007280019006000800c7100d7
:101f40002000370099007800000028000080600021
:101f5000f10fb2000170a000810c78006101510006
:101f6000e0815900f70f4100e08f490004003d0077
:101f7000800c7800000ceb000000eb001200370032
:101f8000ef0f410003003d00010c7800800ceb00d6
:101f9000700141000201ea0009003200f000110066
:101fa000990178008119dd00980078008208de0030
:101fb000018c7100990078000209de00820c780023
:101fc000990c70000080eb004f04be000080fa0006
:101fd000000006000600fa00881f78000004780060
:101fe0008800780068805700d2bf9f00e3bf9f0041
:101ff000360407005fb99700efb997001800be00dc
:10200000690d0700008cbe004fb99700cf91de002c
:102010000800780094ff07004f0478000080fa0061
:10202000000006000400fa00889fbe008a9fbe00e0
:10203000a0bf9f00b1bf9f000204be00e00f51008f
:10204000e08f59005a0032006011b800910c07006f
:102050000000e00056003200e00f5400e08f5c000a
:1020600028003d0060041400e0841c00cac4210064
:10207000f40545000000200001f823000808a30033
:10208000020032001a01be00470d07008904d1008a
:102090000884d300e00f5400e08f5c00030032009e
:1020a000640545008b0f5500f4ff3a000001be00a7
:1020b0000000200001f82300d40b07000001be003f
:1020c0006c805700c3ff07000000e00030003d00b7
:1020d000e00f5400e08f5c0035003200e2112b006d
:1020e000f3a420006c805700baff07000000e00056
:1020f00027003d0061045400e0845c00f7ff3a00d3
:1021000027003700cac42100f40545000000200064
:1021100001f823000808a300020032001a01be00e3
:10212000210d07008984d1000884d300e00f5400fa
:10213000e08f5c0003003200640545008b0f550002
:10214000f4ff3a000001be006c805700a1ff0700b9
:102150000000e0000e003d00e00f5400e08f5c0046
:1021600013003200e25a2c00d34927006c8057003c
:1021700098ff07000000e00005003d0061045400e6
:10218000e0845c004240a900f6ff3c0004003700f8
:102190000000e00002003a000001200003003700c8
:1021a000e10f500002003a0080002000eb0307001e
:1021b0002fb89700bfb897004f05be004f04be0070
:1021c0000080fa0000000600010878000000060008
:1021d000020037000304e00006003200000178002e
:1021e00002007800b041780081cf5100f9ff3a0039
:1021f000010037000001eb0002007800000006003b
:10220000889fbe008a1f780000047800824478000e
:102210000305780070c6b30080cf54001a003c005c
:1022200000c0e90080cf5400cd003d006d4050005b
:1022300080cf5400770032000b003c00714050000a
:1022400080cf540035013c0000c0e90080cf54002d
:10225000c3003d0050c2b30080cf54002c013200b7
:102260007c4040000500370030c6b30080cf5400ea
:102270001a0032001e003c0000c0e90080cf54006c
:1022800026013a00b6003700f0c6b30080cf5400f4
:102290006000320007003c006640500080cf5400d0
:1022a000130032006540400080cf54001b013a000b
:1022b000d400370050c7b30080cf5400550032001f
:1022c0006340400080cf54005200320002c7b30088
:1022d00082cf540011013a00ff0037001181e9005c
:1022e000820878007800900012757800110137009c
:1022f00028609000c2c6b300824f500007003a0029
:102300001101780064005100800878001000be00c0
:102310004f89de00820178001400370012c7b30035
:10232000824f500003003a0011027800680052000a
:1023300005003700a2c6b300824f500006003a00e5
:102340009102780068805200800878005001be0039
:102350004000be00050037001180e90080087800c9
:1023600010007800cf80de006109b900009cbe003b
:102370000294be002862900085c6b300854f5200cb
:102380000d00320025c6b300854f520004003a000c
:102390000000fb00cf80de006109b90008003700b3
:1023a00045c7b300854f520003003200e6c2420029
:1023b000854f520004003a00cf80de006109b90069
:1023c000009cbe000294be003802be002803be007e
:1023d00078009000d1c2b300e00f5200e08f5a00a5
:1023e000e00f5b00e08f5b00080035008810900074
:1023f0000118a30002003200b1c2b300030037008d
:102400000108a3005100320001c2b3000175780039
:102410004c00370028609000c2c6b300824f5000c5
:1024200008003a0011037800640053008008780027
:102430001002be006033b8000400be000601be00fa
:102440001400370012c7b300824f500003003a0057
:10245000910278006880520005003700a2c6b300e0
:10246000824f500006003a001103780068005300c4
:10247000800878005001be004000be000500370013
:102480001180e90080087800100078008000eb00df
:102490006011b800009cbe000294be00286290004b
:1024a00085c6b300854f52000d00320025c6b3002b
:1024b000854f520004003a000080fb008000eb00d2
:1024c0006011b8000800370045c7b300854f5200bf
:1024d00003003200e6c24200854f520004003a0079
:1024e0008000eb006011b800009cbe000294be00aa
:1024f000081090000038a300140032003800be001d
:102500002801be00e00f5000e08f5800e00f590096
:10251000e08f59000d00320080c7b30080cf540017
:102520000300320080c5b30080cf540007003a009a
:102530007800900001c3b300017578000000e80046
:10254000097578000000e800700498007800900099
:10255000000545006a04980089407800690037004a
:1025600028619000c0c4b300804f510006003a00bb
:102570009103780068805300800878005001be0005
:102580004000be00050037001101780064005100d2
:10259000800878001000be00370c0700009cbe00c9
:1025a0000294be00b8009000780090000100e000a6
:1025b00002003d00d1c2b30008003700881090002f
:1025c0000118a30002003200b1c2b30003003700bb
:1025d0000108a3000400320001c2b30001757800b5
:1025e0000000e800700498007800900000054500a5
:1025f0006a0498008900fb0008007800e1020700e7
:102600004e00370028619000c3c6b3001180e90076
:10261000834f5100240032000a003c00e4c1510005
:10262000834f51002700320083c1e800834f5100df
:102630001500320020c6b300804f510020003a0040
:102640000a00370043c7b300834f51001d0032001a
:10265000e6c14100834f51001a00320010c7b30099
:10266000804f510016003a00060037001180e90043
:102670008008780010007800485c900008487800d6
:102680002e0037001180e9008008780010007800e3
:10269000680a9000cfa2de00612bb9000498be004a
:1026a0000690be00250037008008780010007800f2
:1026b00068099000cf91de000288be001f0037003d
:1026c0001180e9008008780010007800680c900004
:1026d00008087800190037001181e90082087800a5
:1026e00012027800cfa2de00612bb900049cbe006c
:1026f0000694be00f8009000010545006a049800a9
:102700008040780008007800c60307000b003700ff
:102710007800900009757800060037007800900076
:10272000000545000904e00001003a0059c2b30069
:10273000094d78000000e800700498000000eb00ec
:102740004f0578004f04be00000006000400fa00a8
:10275000889fbe008a9fbe008c1f7800000478000e
:1027600001067800f80d90007800900080855500f3
:102770000808900080855500180890008085550055
:102780002808900080855500380890008085550005
:1027900048089000808555000002220090bf9f00ed
:1027a00000032300a0bf9f00081090000028a30092
:1027b00015003a000b00e000130034000b05780010
:1027c0008a047800e20f550001003600290020003d
:1027d000c801900009017800ee8057005800900071
:1027e00003000100500498000000e0008c0032005b
:1027f0006808900009004000600c98000905550029
:102800004240a900eeff3c00780190000200e00089
:102810000c003400c80190008c0078005800900033
:1028200003000100500498008080eb000000e000ed
:102830007c003200e80890007800900000804000a2
:10284000600c9800880c90000900e0001100340032
:1028500009057800e28f5400010036002a002000ac
:10286000c80190000a017800ec80570058009000e1
:1028700003000100500498000000e00068003200ee
:10288000680890000a004000600c98008a84540098
:10289000edff3700180990000200e0000c00340042
:1028a000c8019000e800900058009000030001006b
:1028b000500498008080eb000000e00059003200d6
:1028c000e80890001808900000804000600c980014
:1028d000a80c90000900e000110034000905780000
:1028e000e28f5400010036002a002000c801900049
:1028f0000a017800ec8057005800900003000100a6
:10290000500498000000e000450032006808900084
:102910000a004000600c98008a845400edff3700e4
:10292000380990000200e0000e003400e80090003a
:102930001808900080804000c80190005800900066
:1029400003000100500498008080eb000000e000cc
:1029500034003200e8089000380890000080400001
:10296000600c9800c80c90000900e00011003400d1
:1029700009057800e28f5400010036002a0020008b
:10298000c80190000a017800ec80570058009000c0
:1029900003000100500498000000e0002000320015
:1029a000680890000a004000600c98008a84540077
:1029b000edff3700081090008000eb000028a30016
:1029c000180032000b00e000160034008b04780081
:1029d00009057800e28f5400010036002a0020002b
:1029e000c80190000a017800ee805700580090005e
:1029f00003000100500498000000e00008003200cd
:102a0000680890000a004000600c98008a84540016
:102a10004240a900eeff3c008000eb0001003700bf
:102a20008080eb00010078004f0678004f05be0063
:102a30004f04be000080fa0000000600889fbe0020
:102a40008a1f78000004780082447800030578002b
:102a500070c6b30080cf540021003c0000c0e900e4
:102a600080cf5400d5003d007240500080cf54000c
:102a70003c0132000d003c006c40500080cf5400ff
:102a80004f013c0000c0e90080cf5400cb003d0066
:102a900050c2b30080cf5400460132007c40400059
:102aa00080cf540046013a00c400370010c6b3007e
:102ab00080cf5400c100320004003c006940500047
:102ac00080cf54003e013a006900370030c6b300a1
:102ad00080cf5400180032000040e80009003700a1
:102ae00000c7b30080cf54001001320008003c0042
:102af00000c0e90080cf5400d90032005c003c00e7
:102b00006540500080cf54002d013a000f0037007f
:102b100050c7b30080cf54005500320063404000de
:102b200080cf5400520032006540500080cf5400e6
:102b300023013a000b0137001181e9008208780077
:102b4000780090001275780023013700286090000b
:102b5000c2c6b300824f500007003a00110178004e
:102b600064005100800878001000be004f89de002c
:102b7000820178001400370012c7b300824f500062
:102b800003003a0011027800680052000500370087
:102b9000a2c6b300824f500006003a0091027800ae
:102ba00068805200800878005001be004000be00de
:102bb000050037001180e9008008780010007800d7
:102bc000cf80de006109b900009cbe000294be0007
:102bd0002862900085c6b300854f52000d00320078
:102be00025c6b300854f520004003a000000fb00e8
:102bf000cf80de006109b9000800370045c7b30087
:102c0000854f520003003200e6c24200854f520059
:102c100004003a00cf80de006109b900009cbe00cc
:102c20000294be003802be002803be007800900067
:102c3000d1c2b300e00f5200e08f5a00e00f5b00fa
:102c4000e08f5b0008003500881090000118a30099
:102c500002003200b1c2b300030037000108a30034
:102c60005100320001c2b300017578004c003700fa
:102c700028609000c2c6b300824f500008003a009e
:102c80001103780064005300800878001002be0031
:102c90006033b8000400be000601be001400370017
:102ca00012c7b300824f500003003a00910278002f
:102cb0006880520005003700a2c6b300824f500062
:102cc00006003a001103780068005300800878007d
:102cd0005001be004000be00050037001180e90031
:102ce00080087800100078008000eb006011b800c8
:102cf000009cbe000294be002862900085c6b3000e
:102d0000854f52000d00320025c6b300854f52009a
:102d100004003a000080fb008000eb006011b80066
:102d20000800370045c7b300854f5200030032004a
:102d3000e6c24200854f520004003a008000eb00da
:102d40006011b800009cbe000294be000810900004
:102d50000038a300140032003800be002801be0075
:102d6000e00f5000e08f5800e00f5900e08f59004d
:102d70000d00320080c7b30080cf54000300320042
:102d800080c5b30080cf540007003a00780090005f
:102d900001c3b300017578000000e80009757800f0
:102da0000000e800700498007800900000054500dd
:102db0006a04980089407800670037002861900015
:102dc000c0c4b300804f510006003a009103780060
:102dd00068805300800878005001be004000be00ab
:102de0000500370011017800640051008008780068
:102df0001000be00200a0700009cbe000294be0026
:102e0000b8009000780090000100e00002003d0052
:102e1000d1c2b30008003700881090000118a30049
:102e200002003200b1c2b300030037000108a30062
:102e30000400320001c2b300017578000000e80010
:102e40007004980078009000000545006a0498001e
:102e500089407800080078002103070060003700ef
:102e600028619000c3c6b3001180e900834f510070
:102e7000220032000a003c00e4c15100834f51009f
:102e80002500320083c1e800834f51001300320057
:102e9000e8c15100834f51001e003a000a0037007c
:102ea00043c7b300834f51001b003200e6c141000d
:102eb000834f510018003200e9c15100834f510087
:102ec00014003a00050037008008780010007800f0
:102ed000485c90000848780041003700800878007e
:102ee00010007800680a9000cfa2de00612bb900c4
:102ef0000498be000690be003900370080087800b4
:102f00001000780068099000cf91de000288be00b2
:102f1000330037001180e900800878001000780045
:102f2000680c9000080878002d0037001180e90037
:102f30008008780010007800cf80de006109b900b9
:102f4000009cbe000294be00780090000005450081
:102f50006a04980081c7b30008007800b101070037
:102f60001f0037001180e900800878001005780004
:102f70006a049800d80c90000900e00004003d00ad
:102f80000a007800a9f607008004780007003700df
:102f9000090178008000eb000a00780031f9070091
:102fa0000000e000010032008a045000190c980073
:102fb0000b00370078009000097578000600370094
:102fc00078009000000545000904e00001003a0087
:102fd00059c2b300094d78000000e8007004980061
:102fe0000000eb004f0578004f04be000000060013
:102ff0000003b1000b0035009000b1000800340060
:103000008000b100070035009001b10004003400d9
:103010007000b100030035009001b10001003c00d8
:10302000100005000000050080007800d101780044
:103030000400280004826100f307b20083087800ce
:10304000120020000e003a00900178000300e0001a
:103050001b003200830878000008eb0012ff2f00ed
:10306000070037008381410090027800cf2ade00fc
:103070008588710090017800038841000201e90011
:1030800091017800f5072000858f5100f5ff36008b
:1030900005003700cf19dd009002d10005887100ce
:1030a0009108d1000201e80091017800f50f20009d
:1030b000858f5100f7ff3e00f007200080886100f7
:1030c000910872000200780000000600889fbe0090
:1030d0000004be0000f82700590060004700de0031
:1030e000f20f2000820f50000a003a00000ceb00a3
:1030f000f2072000190161002000200015003a00ad
:10310000100020001100e00012003200200020001a
:10311000100037000000e00004003a0001007800d1
:10312000c1ff07000000e00008003c00f207280093
:103130001901610001f02300810c710021f82f00ba
:10314000010c40000080eb0002003700000ceb0097
:103150000000eb004f04be0000000600e500600028
:10316000030032001002200050e388000000060037
:1031700078006000020032002002200050e3880046
:10318000000006002f04b000889fbe008a9fbe008a
:103190008c9fbe008e1f78000007780081f79f008b
:1031a0003e04be002e05be005e0890000000e00058
:1031b00002003d0060002000500f98008e00780053
:1031c00020fb2f000f0040003e040700e20f5000dc
:1031d0000a003a0030002000100f9800b1c9b30077
:1031e0000ff0970081404000c0a62100e1cf5000c1
:1031f0000d003e0080a621000b0037000000e0001b
:103200000f00340030002000100f9800b1c9b30047
:103210000ff197008140410040a72100e1cf50000d
:1032200001003e0000a72100ee009000b0487800a9
:10323000b06878001040780090409800f3003700a4
:103240000000e00005003a0022fb2f000f014100c2
:10325000001978008001eb00e70037006022b80019
:103260006033b8000800be000a01be002109070053
:103270000000e00001003d000bf0a20070592700a3
:103280009f9897000088b900026a28001300200068
:103290001d090700640650009c9f9f0013003b001f
:1032a00063061600c0ff2f00000666008c01ea00ce
:1032b000939f9f008da721000800be000a01be0059
:1032c000070037000c08a300030032003d02be00d7
:1032d0002d03be00920b07000c86d100e886460045
:1032e0000c00e000f7ff3c00180037000c00e00085
:1032f00018003200c0ff2f00000666009c9f9f0050
:103300008da721006000b8000200200003ff230009
:10331000070037000c08a300030032003d02be0086
:103320002d03be007e0b07000c86d100e886460008
:103330000c00e000f7ff3c000002be000203be00ec
:103340000800be000a01be00fe0807000004be001f
:103350000205be00de08900060c6b3000ff29700c1
:10336000804f5200040032006000200062c4b300ad
:10337000824f520002003a009f9a97006a804200f2
:1033800081004000f1b79f0001037800f30f530064
:103390000200340037012000f7b79f0000c3b300dc
:1033a000c0779f0056fb2f000f0343000e007800ec
:1033b000a0b79f00060778003d0037000800be0058
:1033c0000a01be00390907000006be007fb1970060
:1033d00068015100f2b79f004240a9000c00340080
:1033e0005e0907000002be000203be000800be0026
:1033f0000a01be005c0907006022b80046782d0073
:1034000077192400460b07000004be000205be0029
:10341000e80047008e0020000802be000a03be003c
:10342000b4b79f00c5b79f00d6b79f00e7b79f000e
:103430000c01be00010478000c003700a40020003d
:1034400005002000c0fd2f000f004000c70307004b
:103450006fa89700ffa897000fb197009fb1970042
:1034600005c3b300056441000001be00e00f510038
:10347000e08f5900030034000e07e900e10f470018
:10348000eeff3a00880078003fb49700cfb4970071
:103490005fb59700efb597000200370000c3b30097
:1034a000806078000e07e900fcff3b006887400061
:1034b0007fb397000600e000070034006022b800e8
:1034c0006033b8000800be000a01be0028090700ea
:1034d0000000e000b9ff3c000e0378002fb7970012
:1034e00051fb2f008f804000010353009f9b9700ea
:1034f00067804300909f9f00020037000603e900a9
:103500000000e900010178008200780003c3b300e5
:10351000b1cf1100f9ff3200909f9f00de099000ab
:1035200061c6b3000ff29700814f520003003200d2
:1035300061c4b300814f520002003a000000e8006d
:103540000a0037001000200051c6b3008ff2970028
:1035500081cf5200050032000540780050c4b2000f
:103560000080fb000000e9004f00de008301400006
:10357000868f510001003400860178000300e000ce
:103580001d00350000c3b300868f510006003d00ca
:1035900062c279006940400041c3b300814f5200cc
:1035a00001003c00694050008300e90081004100b7
:1035b00001003700840178000302e900010378006c
:1035c000a142780080cf5200faff320091c3b300cd
:1035d000814f500001003a00054be8000400e00074
:1035e00005003d000201e9008301e8001f9b9700f0
:1035f0000603e800969f9f008ff397008700fb006b
:103600001f9a97000e0078006d0307004f0778009f
:103610004f06be004f05be004f04be002f04b10090
:1036200000000600fc874700889fbe008a9fbe00fe
:103630008c9fbe008e1f78000006780080c5b30006
:1036400080cf50000a0032007740400080cf500009
:103650000a0032006940400080cf50000b00320069
:10366000d0bc210080bf9f00ae0020000a003700c0
:10367000c2bb210082bf9f0006003700d3bc2100df
:1036800083bf9f008e00200003003700d4bc2100c0
:1036900084bf9f000e0120003c02be002c03be0030
:1036a0000605be000404be0040c6b30080cf500033
:1036b000030032006540400080cf50000b003a000c
:1036c000e00f5200e08f5a00e00f5b00e08f5b00dc
:1036d00006003d006000b8006011b800040450000e
:1036e000858458000605590087855900e80f570062
:1036f0000400320040002000f00f570038003a006c
:103700000100370030002000e00f5400e08f5c0023
:10371000e00f5d00e08f5d0004003a00dc089000df
:103720008d0120000100e000060032008e00e9005b
:10373000888060008fba9700e5c07800f1ef9f00a5
:103740007d012000800078008100e9000500330041
:103750008b05d1000a85d3008984d3000884d30067
:10376000f9ff3700089ebe000a96be00120037001f
:103770008d06e9008e00e900848060000fb9970093
:10378000e2c1780082fd2f000f01410003f17e00ad
:10379000800078008100e900050033008783d100b4
:1037a0000683d3008582d3000482d300f9ff37005b
:1037b000049ebe000696be003c02be002c03be0066
:1037c000e00f5200e08f5a00e00f5b00e08f5b00db
:1037d0008b0034000d00e000e5ff3c00880037005e
:1037e0002c60900081c6b300814f50000b00320066
:1037f00006003c000004e00008003200e6c0500073
:10380000814f50004e003a0004003700c1c6b3009b
:10381000814f50004a003a00210037000800e000c4
:1038200004003a005c0890008d0120000000e000d8
:1038300006003200110009000e84d8000fb997006d
:10384000e2c07800f1ef9f007d0120001100090027
:103850000e84d8000a003700110009000e04d800b9
:103860008d06e9000e81b900020454008fb897005c
:1038700061417c0081fd2f008f80400082f07e003e
:10388000000478000800e000020032000d00e000b3
:10389000f1ff3c00cfc4de00614db90025003700c8
:1038a000e00f5400e08f5c0004003a005c089000d8
:1038b0008d0120000000e000070032006171b900b6
:1038c0000800be002f0807008fb99700e341780079
:1038d000f3ef9f007d0120006171b9000800be0078
:1038e000210707000b0037006171b9000800be0016
:1038f000850707008d06e90000f1b90002045400b5
:103900000fba9700e4427c0084fd2f000f024200b2
:1039100005f27e000004be00e00f5000e08f58006a
:10392000020032000d00e000efff3c004fcdde0052
:103930008a057800089ebe000a96be003000370057
:10394000e00f5400e08f5c00e00f5d00e08f5d0051
:1039500004003a005c0890008d0120000000e000a7
:10396000090032006172b900612bb9000800be0085
:103970000a01be00750807000fba9700644278007c
:10398000f4ef9f007d0120006172b900612bb90046
:103990000800be000a01be00650807000d003700e0
:1039a0006172b900612bb9000800be000a01be00b7
:1039b0006a0807008d06e90000f2b900040454000b
:1039c0008fba970065427c0085fd2f008f824200f0
:1039d00084f27e00009ebe000296be003c04be0043
:1039e0002c05be00e00f5400e08f5c00e00f5d008e
:1039f000e08f5d00020034000d00e000e8ff3c00b5
:103a0000e80f570010003a000c1090000038a30097
:103a10000d003200f78f560006003e0085fd2f0096
:103a20008f824200e5c07e0000c3b30080cf50000b
:103a3000050032008d06e90002c3b30081fd2f00ae
:103a40008f80400082f07e0078811600120e980070
:103a50006c00900083fd2f008f8141008d8041001c
:103a6000fef307001c089000dc089000810f500056
:103a700006003d0000805000000e98000c109000e1
:103a80000040a100001698000f0037000100e00080
:103a90000d003d008c109000f4806000f08f50000d
:103aa00009003a007c099000fc0090008100510060
:103ab0000c09900082805000008050004240a90014
:103ac00001003400000e98004f0778004f06be003a
:103ad0004f05be004f04be00cf01b100000006003c
:103ae000cf04b000889fbe008a9fbe008c9fbe009e
:103af0008e1f780000067800814678003c00be00ea
:103b00002c01be00d0979f00e1979f00f2979f0085
:103b1000839f9f0010c6b30080cf56001200320072
:103b200010c4b30080cf56000f0032005c08900034
:103b30000000e00002003d006000200009003700a6
:103b40000000e00008003a0070c6b30080cf5600c5
:103b50000300320070c4b30080cf560002003a0068
:103b600010002000500e98008c00780080fa2f0082
:103b70000f004000d3010700e20f50000f003a0091
:103b800030002000100e9800e09e210011c6b30006
:103b900081cf560019003200e4c0400081cf5600aa
:103ba00016003200209f21008140e80081cf56009e
:103bb00012003a00e09e2100100037000000e000f3
:103bc0001400340030002000100e9800609f210087
:103bd00011c6b30081cf560008003200e4c0400097
:103be00081cf560005003200a09f21008140e800ef
:103bf00081cf560001003a00609f2100ec00900048
:103c0000b0487800b0687800104078009040980084
:103c1000a601370011c6b30081cf56000300320061
:103c200011c4b30081cf56000e003a00ec009000a2
:103c300002c3b300825878006106980082c5b300c1
:103c400013c6b30083cf560001003a0082c7b30009
:103c50008258780061069800fc0090008180e8009e
:103c6000710698000000e00005003a00c0979f0030
:103c70008001eb0022fb2f000f014100870137007c
:103c800010c6b30080cf56000600320010c4b30047
:103c900080cf56009a003a00f1a02100d1b79f00d2
:103ca00002003700e29f2100d2b79f005c0890001d
:103cb0001b0220000000e000010035008005e80044
:103cc0000b05e8006022b8006033b8005f909700f1
:103cd000ef9097007f9197008f99970085060700d6
:103ce000000278003c00be002c01be000400e00091
:103cf00001003d0003f0a200d0979f00e1979f00d4
:103d0000f2979f00839f9f00cf919700e48151001d
:103d1000c3979f000040eb00a0779f003efb2f0061
:103d20000f07470031003700c201200003002000c8
:103d3000a0fa2f000f004000a50207005f90970037
:103d4000ef9097007f9197008f99970090b79f0011
:103d5000a1b79f00b2b79f00c3b79f00d30607006b
:103d60000004be00670555004240a9000c00340065
:103d7000fa0607000002be000203be001fb0970053
:103d8000afb097003fb19700cfb19700f60607009c
:103d9000d0979f00e1979f00f2979f00839f9f001d
:103da0006707470070002000050037006f67640058
:103db000cc48dd004444de0008847000c4ccde0042
:103dc000e00f5400e08f5c00050034000000e900c3
:103dd000e10f4000f5ff3a00010037000067eb00fb
:103de0000000e900fdff3b00670747000a00e00014
:103df000090034006022b8006033b8005f9097007b
:103e0000ef9097007f9197008f999700d806070051
:103e10000000e000c4ff3c0032fb2f000f01410016
:103e2000020757008e0178008b0f57000100340005
:103e30008b0178000300e0002b0035000040eb0010
:103e40008e8f51000a003d0082fa2f000f014100c1
:103e500003004100b0489000f0c0b300e7cf50002d
:103e600003003c000040eb000100370081017800b6
:103e70008300e90034fb2f000f02420001014200e1
:103e800012427800804f5200f8ff3200ef4f50008e
:103e900001003a000449e8000100e00007003d008d
:103ea0008301e8004f90970064004000c0979f0096
:103eb00022fb2f000f0141000200370032fb2f00d0
:103ec0000f0141000300780005003700e240780050
:103ed0008100fb005fb29700e4c0780001717800b8
:103ee0000000e900f9ff3b005c0890000000e000e2
:103ef000ea003d000300e900500e9800e70037009b
:103f00005f949700ef9497007f9597008f9d97009f
:103f10006022b8006033b8000800be000a01be008d
:103f2000f40507000000e00005003d000bf0a200d2
:103f3000d8979f00e9979f00fa979f008b9f9f005b
:103f400070592700cf9097000088b900026a2800b6
:103f500013002000ec05070064045000c8979f0080
:103f600015003b0063041400c0ff2f000004640030
:103f70000800ea00c0979f005f909700ef909700bd
:103f80007f9197008f9997000aa2210007003700c0
:103f90000808a300030032003a02be002a03be0054
:103fa0005f0807000884d100680545000800e000ac
:103fb000f7ff3c001a0037000800e0001c00320048
:103fc000c0ff2f0000046400c8979f000aa22100d0
:103fd0006000b8000200200003ff23000700370044
:103fe0000808a300030032003a02be002a03be0004
:103ff0004b0807000884d100680545000800e00070
:10400000f7ff3c000002be000203be005f90970075
:10401000ef9097007f9197008f999700c90507004f
:10402000d0979f00e1979f00f2979f00839f9f008a
:104030005c0f900060c6b30080cf560004003200d1
:104040006000200061c4b30081cf560002003a0036
:10405000cf9097006a8040000e074000f30f570092
:10406000010034003e01200000c3b300a0779f0090
:104070003bfb2f008f854500350037005fb0970070
:10408000efb097007fb197008fb997000706070040
:104090000004be00680757004240a9001000340029
:1040a0002e0607000002be000203be005fb09700ac
:1040b000efb097007fb197008fb997002a060700ed
:1040c0006022b80046782d007719240014080700f4
:1040d000d0979f00e1979f00f2979f00839f9f00da
:1040e000e88545008a0020000801be000c0037006a
:1040f000a400200005002000a0fd2f000f004000bc
:104100009a0007005fa89700efa897007fa9970083
:104110008fb1970004c3b300846541000001be0065
:10412000e00f5100e08f5900060034000a05e90055
:10413000e10f4500eeff3a000200370000c3b30074
:10414000806578000a05e900fcff3b00e885450032
:104150000e00e0000d0034005f909700ef90970094
:104160007f9197008f999700d0b79f00e1b79f008c
:10417000f2b79f0083bf9f006022b8006033b80091
:10418000fb0507000000e000bcff3c0031fb2f00f6
:104190008f804000818555004f9197006700410056
:1041a000c0979f00020037008b05e9000000e9007e
:1041b000010178008200780003c3b300b1cf110081
:1041c000f9ff3200c0979f00dc09900061c6b30080
:1041d00081cf56000300320061c4b30081cf560086
:1041e00002003a000000e80009003700100020003b
:1041f00051c6b30081cf5600050032000d40780053
:1042000050c4b2000080fb000000e9004f00de0057
:10421000830140008b8f5100010034008b01780036
:104220000300e0001d00350000c3b3008b8f510078
:1042300006003d0062c279006940400041c3b300fe
:10424000814f520001003c00694050008300e900aa
:104250008100410001003700840178000302e90079
:1042600001037800a142780080cf5200faff3200ab
:1042700091c3b300814f500001003a00054be800a4
:104280000400e00005003d000201e9008301e800b0
:104290004f9297000402e800c4979f004f92970046
:1042a0008d4078000c007800c40107004f077800ab
:1042b0004f06be004f05be004f04be00cf04b10044
:1042c00000000600889fbe0000047800e6844000dd
:1042d0001900d0004500de00f27f2000820f500060
:1042e00010003a00000ceb00990478006f81640024
:1042f000200020001b003a00210190000200e00095
:1043000018003a00110190000200e00015003a0088
:10431000100020001100e0001200320020002000f8
:10432000100037000000e00004003a0001007800af
:10433000d40207000000e00008003c00f200280062
:104340001901610001fe2300810c710021c02f00c2
:10435000010c40000080eb0002003700000ceb0075
:104360000000eb004f04be0000000600881f78002c
:104370008a9fbe008c9fbe00000478000205be002c
:104380000406be000401be000a00be00de040700f1
:10439000008cbe000c01be006d0407000005550036
:1043a00081855d002a0498003b049800080078008d
:1043b0004f06be004f05be004f0478000000060007
:1043c000f0874700889fbe008a9fbe008c9fbe007a
:1043d0008e1f780000047800814478000205be003a
:1043e000040678000b00e00002003c001b002000e7
:1043f000eac6210060c6b30080cf54000e00320030
:1044000060c4b30080cf54000b00320070c6b3000c
:1044100080cf54000300320070c4b30080cf54003a
:1044200081003a00e40f46007f00350058089000f4
:10443000800f56007c003d000c06e80060c6b3000b
:1044400080cf54001000320060c4b30080cf54000d
:104450000d003200081090000038a30004003a005c
:1044600058089000808f550001003d005b0c9800bb
:10447000580890000c005000500c980002003b00bf
:104480000000eb00500c980018089000e800900025
:104490000c00e00026003c0002c3b30082707800ec
:1044a0000000e800100c9800d80890000100e0001f
:1044b00003003c00881090000138a3000500320082
:1044c000e8009000e2c2b300827078000000e800cb
:1044d000100c9800580890008c00ea00810f5000e2
:1044e00001003d000006ea008c00ea00210c980063
:1044f000000646005c0c98008b0f5600010034004b
:104500000b0678003c0c9800e8009000180890001a
:10451000008040000c0178008a0078004ff107000d
:10452000580890000c0650004c0c98009000370082
:104530008c8f550018003d00008040000b01780072
:104540008a00780045f107001808900000804500b7
:10455000100c98008b0556002b0c9800d808900082
:104560000100e00003003c00881090000138a30027
:1045700006003200e8009000e2c2b30082707800ca
:10458000380890000000e800300c980058089000af
:10459000400c980076003700008040000c01780045
:1045a0008a0078002df107001808900000004600ee
:1045b000100c98008c855500d80890000100e00090
:1045c00003003c00881090000138a3000500320071
:1045d000e8009000e2c2b300827078000000e800ba
:1045e000100c980058089000808f5500010034008e
:1045f00080057800e80090001808900000804000d6
:104600008c0045000b01780014f107001808900099
:104610000b004000100c9800580890008b055000cb
:104620002b0c98005200370018089000e80090000a
:104630009a7078000000e800100c9800d8089000ec
:104640000100e00003003c00881090000138a30046
:1046500005003200e8009000e2c2b30082707800ea
:104660000000e800100c9800580890000000e000de
:10467000100034008b05e900808f550001003400e4
:1046800080057800e8009000180890000080400045
:104690008a00e8000b017800f0f00700180890008d
:1046a0000b004000100c9800580890008b0550003b
:1046b0002b0c9800e8009000180890000080400043
:1046c000095878000007e8000c00e00004003500fd
:1046d000b1c2b300014878008e04780004003700ae
:1046e000d1c2b300014878008e0478000c06ea00bd
:1046f0007d8557008006eb0009003700a2002000ee
:104700008c007800728057002a0207007fb0970063
:104710008fb89700016d7800000678008d06e800dc
:104720000c00e000f5ff3c000d00e00009003a003d
:104730008e04780000c3b300805c78000500370069
:104740008d06e900fc80570061c07e0002c3b30003
:10475000825c40000d00e000f9ff3c00e8009000a2
:10476000180890000080400080845400390c9800a4
:104770000810900074006000f00f50000e003a0026
:10478000980890007800900000804000a8089000f1
:1047900001004000b808900001004000c8089000e7
:1047a00001004000f8089000810f500002003d0019
:1047b00000805000000c98004f0778004f06be00a4
:1047c0004f05be004f04be000f01b10000000600ff
:1047d0000400fa00889fbe0000047800e60444004c
:1047e000190078008000d000c508de00f47f2000aa
:1047f000848f50000e003a00ef006000200020007f
:104800006b003a00a80090000100e00068003a0048
:10481000980090000100e00065003a0010002000c0
:104820001800e00062003200200020006000370025
:104830000100e0000a003a0008007800c2bf9f00b3
:10484000d3bf9f008f010700800078000000eb00bd
:104850004fb99700dfb997000100e00054003c0019
:104860004f88de000281400083014800e07f200085
:10487000800f5100e08f59000d0034001900e00056
:1048800004003d006000b8000200200003ff2f007c
:10489000030037006000b8000200200003ff27007b
:1048a000009cbe000294be001000200040003700b3
:1048b000e00f5100e08f5900050034004411dd0085
:1048c000f000280019006000800c710037003700ec
:1048d0001900780004002800040260006f006000e6
:1048e0000040a000800c7800d0fc2f00f1ff2f00ca
:1048f000800f5100818f590006003d00840c780024
:104900000000eb002004980010049800000ceb005d
:10491000270037006f0141000600370008007800cb
:10492000500c7800e40044001108780099087800e1
:10493000800ceb00700051007001410001fe2f005f
:1049400082804000ef8f4000f4ff35000000ea0055
:10495000150032008800780070011000d102780044
:10496000822add00980178008019de00038c720035
:104970006404440098027800822add0091017800e6
:104980008019de0083887200990078000209dd003a
:10499000980078008008de00010c71009900780012
:1049a0000008de00800c7800990c72000080eb009b
:1049b0004f04be000080fa0000000600f0874700a8
:1049c000889fbe008a9fbe008c9fbe008e1f78000d
:1049d00000047800814478000205be0004067800d7
:1049e0000b00e00002003c001b0020000ac7210071
:1049f00060c6b30080cf54000e00320060c4b30024
:104a000080cf54000b00320070c6b30080cf54003a
:104a10000300320070c4b30080cf540099003a0004
:104a2000e40f46007f00350058089000800f5600c4
:104a30007c003d000c06e80060c6b30080cf540047
:104a40001000320060c4b30080cf54000d0032006b
:104a5000081090000038a30004003a0058089000a5
:104a6000808f550001003d005b0c980058089000b5
:104a70000c005000500c980002003b000000eb00be
:104a8000500c980018089000e80090000c00e0001e
:104a900026003c0002c3b300827078000000e800ea
:104aa000100c9800d80890000100e00003003c00c2
:104ab000881090000138a30005003200e800900043
:104ac000e2c2b300827078000000e800100c980089
:104ad000580890008c00ea00810f500001003d0052
:104ae0000006ea008c00ea00210c9800000646004f
:104af0005c0c98008b0f5600010034000b06780008
:104b00003c0c9800e80090001808900000804000dd
:104b10000c0178008a007800d0ef07005808900058
:104b20000c0650004c0c9800be0037008c8f5500ce
:104b300018003d00008040000b0178008a007800da
:104b4000c6ef07001808900000804500100c980080
:104b50008b0556002b0c9800d80890000100e0004f
:104b600003003c00881090000138a30006003200ca
:104b7000e8009000e2c2b30082707800380890002c
:104b80000000e800300c980058089000400c980095
:104b9000a4003700008040000c0178008a007800f3
:104ba000aeef07001808900000004600100c9800b7
:104bb0008c855500d80890000100e00003003c00ff
:104bc000881090000138a30005003200e800900032
:104bd000e2c2b300827078000000e800100c980078
:104be00058089000808f550001003400800578003f
:104bf000e800900018089000008040008c004500fc
:104c00000b01780095ef0700180890000b0040009a
:104c1000100c9800580890008b0550002b0c980041
:104c20008000370070c6b30080cf5400030032000c
:104c300070c4b30080cf540012003a0058089000ae
:104c4000808f550004003d00081090000038a3003c
:104c500001003a005b0c9800580890000000e90041
:104c6000500c980002003b000000eb00500c980034
:104c700070c6b30080cf540009003a0059c6b30093
:104c80000c00370010c6b30080cf5400060032007d
:104c900010c4b30080cf540006003a00040037006f
:104ca00059c4b3000300370009c7b300010037003f
:104cb00009c5b30018089000e80090009a707800c9
:104cc0000000e800100c9800d80890000100e000f7
:104cd00003003c00881090000138a300050032005a
:104ce000e8009000e2c2b300827078000000e800a3
:104cf000100c9800580890000000e00010003400ec
:104d00008b05e900808f5500010034008005780094
:104d1000e800900018089000008040008a00e80039
:104d20000b0178004def0700180890000b004000c1
:104d3000100c9800580890008b0550002b0c980020
:104d4000e8009000180890000080400009587800a2
:104d50000005e8000c00e00004003500b1c2b3001b
:104d6000014878008a06780004003700d1c2b300f9
:104d7000014878008a0678000c06ea00fd85570095
:104d80000007eb0009003700a20020008c0078002b
:104d900072805700870007007fb097008fb8970098
:104da000816d7800000678000e07e8000c00e00036
:104db000f5ff3c00e10f570013003c0050c6b30064
:104dc00080cf54000300320050c4b30080cf5400a1
:104dd00003003a008a06780000c3b300805e7800c2
:104de0000e00e00008003a0000c3b300805e7800c7
:104df000050037000e07e900fc80570061407f0086
:104e000002c3b300825e40000e00e000f9ff3c00e8
:104e1000e80090001808900000804000808656004e
:104e20003d0c98000810900074006000f00f5000d6
:104e30000e003a0098089000780090000080400032
:104e4000a808900001004000b80890000100400050
:104e5000c808900001004000f8089000810f500041
:104e600002003d0000805000000c98004f077800c1
:104e70004f06be004f05be004f04be000f01b1003b
:104e800000000600e600400011017800050028003f
:104e9000850261006f016100820878000200320023
:104ea0001200200011003700a00190001200200025
:104eb0000300e0000d003a00900190000300e000c4
:104ec0000a003a001000e00008003a0036003700ff
:104ed000640340009608780080017800530b780046
:104ee00090097800040878007001510011027800e0
:104ef0000400e000f6ff32001300370064024000b7
:104f0000140378004f33de0083814100830873006f
:104f100080017800d3037800cf3bde0014037800d3
:104f200006034300068a730013027800040242005d
:104f3000100378004f33de0086097200900178007c
:104f4000038841000201e90091017800ef8f5100d0
:104f5000eaff360010003700800178005303780024
:104f60004f33dd001002d1000408730064024000da
:104f700094037800cf3bdd001303d10086897300d2
:104f8000110378004f33dd009401d100030a730050
:104f90009108d1000201e80091017800ff8f5100d3
:104fa000edff3e00ef8861009188720002007800fa
:104fb000000006008002780001037800110009005b
:104fc0000203d80080017800830a78000299b900b2
:104fd00002015300920298000500780000000600cc
:104fe0002002e20004003d002342ab000200320038
:104ff0002302ab00feff32000040da00feff370064
:105000004f89de0082017800a4003700889fbe002f
:105010008a9fbe008c1f7800b0000700b7003300e5
:1050200003866c006450e1002e0032006420e10031
:10503000330032006150e1002f0032006120e100b6
:105040003100320085855500eb07b00009002000d3
:1050500008042000050037000804440089844c003f
:105060000a0031000603430087834b000001530010
:1050700081815b00f8ff33000203be000800a0003e
:105080000804440089844c00f6ff3900c639dd006d
:105090008301730001003200130020008904d10055
:1050a0000884d3000998a300050032000800a70077
:1050b0000300a0008904d1000884d3008b05e80018
:1050c0008904d1000884d3000001eb000281d200e2
:1050d0009a00070001f0a1000cf0a70001f0a00069
:1050e0008f0037006420e100910032000801be000b
:1050f0000200be00f7ff37006120e1008c003200a3
:105100006000b800f3ff37000000200001f827001e
:10511000f0ff370003f0a200889fbe008a9fbe0008
:105120008c1f78006d000700740033006450e100ac
:105130004f0032006420e1005200320003826c0014
:1051400007003b000905d0000306d000820f540081
:105150000c065d000200390002003200890178006f
:10516000030678008582550004003d000003fd0021
:105170008103fd008502ea008b854200840f7200e6
:1051800002003b0060001000e08018006011b800d1
:105190000005eb007a28e1000a00390006007800db
:1051a000c75ddd00f707b200878075002d0037006e
:1051b000828171000a017800610560008180d10060
:1051c0000080d3008502e900f9ff3b00060440009f
:1051d0008784480002003b0060041400e0841c0047
:1051e0000988a300070032008a8171008281710062
:1051f000610164008904d1000884d3008b05e800b4
:10520000170037000978a30013003a000b00e000f4
:10521000130034008b05e9000804440089844c0025
:105220000a4474000978a3000d003a000b00e00066
:10523000070034008b05e9000804440089844c0011
:1052400001003a000b0020000978a300f7ff3200ac
:105250000001eb0002003700828171000a01780032
:10526000360007000cf0a70001f0a0002c0037006a
:105270006420e10002003a00838f6c002c003300b0
:105280000801be000200be0025003700f4ff2f0019
:1052900050003700140020004e003700881f7800af
:1052a000030478000300e00007003d0060001000e8
:1052b000e080180060011900e081190002003b0045
:1052c00001f02d00030037005d00070008f0a70083
:1052d00001f0a0004f047800000006000004be00aa
:1052e000860007000003be000405be000200be00e9
:1052f00082000700844f7500000006000200be0017
:105300006450e100050036006420e1000200360030
:105310000968a30001003a000800be000160a00077
:105320004f0678004f05be004f04be000000060087
:10533000f0ff2f00f1ff2700f9ff37008100200068
:10534000618055000b003d000b00200061fe2f0026
:105350000100e1001d0034008281710061016400e0
:105360008904d1000884d3000000e800faff3a0065
:105370007100200061006400030070000200600002
:105380000900320061044400e0844c000988a50053
:10539000050032008b05e8006808e10002003a00d1
:1053a0008904d1000884d300f20f20000258e100e4
:1053b00005003d00c75ddd00f907b200898075007a
:1053c00008007800000006000bf827008b0078002a
:1053d00000000500889fbe008a9fbe00841f7800e1
:1053e000beff07004f00780011003300f0ff2f00d0
:1053f000838f6c0006003b00040565000a00a700cf
:105400000800370009f0a60010002000080037004f
:10541000820f5400838f5c000300390010002000cd
:1054200001003e000000200009f0a7000000ea0093
:105430004f05be004f04be000000e0000000060063
:10544000889fbe008a9fbe00008270000402710027
:1054500004827100260032000004be000200be007b
:105460006011b8006b092000950220000182cf0076
:105470000a0039000541b1000082cf000700390061
:105480000541b1000982cf00040039000541b10097
:105490000882cf00010039000541b10005425200e9
:1054a000120032000a003b00828171006101640039
:1054b0008100d1000080d3008984d3000884d30008
:1054c0008b05e8000442e800f7ff3a0007003700c8
:1054d0000804440089844c00000048008180480092
:1054e0008b05e9000442e900f9ff3a0093ff070049
:1054f0004f05be004f04be0000000600c70ade00d4
:10550000f107b200f50fb20008003200e1cf42000f
:10551000020032000170a00024000500810f70001d
:10552000010032000408050044000500810f7000ee
:1055300002003a00140005008502e9000000400066
:1055400081c04800fcff3b000170a0002400050062
:10555000020ab900001bb9000200b8008100420035
:1055600081004300000006006022b800060220000f
:105570000000d0008180d2000482d2008582d20057
:105580000000a0000202520083825a000300310092
:105590000202420083824a000000a1000603e900e3
:1055a000f3ff3a0000000600889fbe008a9fbe00fd
:1055b0008c1f780049ff070050ff330003866c0002
:1055c0006450e100240032006420e1002700320032
:1055d0006150e100220032006120e1002100320030
:1055e0008b854200eb07b1000134b800003ab800e7
:1055f0000804420089844a00013ab8000030b8002b
:105600008880400009014a00040033000000400087
:1056100081804800020149008b05e900c909dd00cd
:10562000830170000100320013002000c814de0066
:105630004814dd004709de001200b200c808de0091
:10564000088470003dff070001f0a1000cf0a700e6
:1056500001f0a00032ff37006120e10034ff32008a
:105660000801be000200be00f7ff37006150e100f4
:10567000fcff3a002eff3700810378009fff0700f0
:105680000001be006000b8000478a30013003a00d7
:105690006220e10015003e000d0039008301d100b9
:1056a0000281d3008180d3008301d1000281d30025
:1056b0008180d3008301d1000281d3008180d30097
